:020000040800F2
:100000000028002001180008E1150008E715000885
:10001000ED150008F3150008F915000800000000B0
:10002000000000000000000000000000FF150008B4
:100030000B16000800000000171600082316000821
:10004000491800084918000849180008491800080C
:1000500049180008491800084918000849180008FC
:1000600049180008491800084918000849180008EC
:1000700049180008491800084918000849180008DC
:1000800049180008491800084918000849180008CC
:1000900049180008491800084918000849180008BC
:1000A00049180008491800084918000849180008AC
:1000B000311600084918000800000000491800081F
:1000C000491800080000000000000000491800085E
:1000D000000000004918000849180008000000004E
:1000E00049180008491800084918000800000000D5
:1000F0000000000000000000000000000000000000
:0C01000000000000000000005FF808F1A3
:10010C0010B5054C237833B9044B13B10448AFF345
:10011C0000800123237010BD4C0000200000000063
:10012C00A02E000808B5034B1BB103490348AFF3DD
:10013C00008008BD0000000050000020A02E000828
:10014C0080B500AF834B1B68013B032B00F2F8809A
:10015C0001A252F823F000BF75010008B30100089A
:10016C003D020008C5020008012220217A4801F056
:10017C0068FE01224021784801F063FE01228021B3
:10018C00754801F05EFE734B02221A60734B1B68BC
:10019C004FF47A7202FB03F3184601F053FAFA207B
:1001AC0001F088FAD3E0002220216B4801F049FECF
:1001BC0001224021684801F044FE0122802166485A
:1001CC0001F03FFE01F05CF8654B1B68012B0BD175
:1001DC00604B03221A60634B1B684FF47A7202FB6C
:1001EC0003F3184601F02EFA5F4B1B68012B40F00D
:1001FC00A98000222021584801F023FE00224FF450
:10020C008071554801F01DFE524B00221A60574B6D
:10021C0000221A60564B0D221A60534B00221A60B2
:10022C00FA2001F047FA4FF4FA7001F05FFA89E016
:10023C0001222021484801F004FE002240214648BA
:10024C0001F0FFFD01228021434801F0FAFD01F08D
:10025C0017F8434B1B68012B0BD13E4B04221A6041
:10026C00444B1B684FF47A7202FB03F3184601F0FF
:10027C00E9F93D4B1B68012B66D100222021364841
:10028C0001F0DFFD00224FF48071334801F0D9FDFD
:10029C00304B00221A60354B00221A60344B0D2271
:1002AC001A60314B00221A60FA2001F003FA4FF465
:1002BC00FA7001F01BFA47E001222021264801F0D8
:1002CC00C0FD01224021244801F0BBFD0022802109
:1002DC00214801F0B6FD00F0D3FF214B1B68012B28
:1002EC000BD11C4B02221A601C4B1B684FF47A7208
:1002FC0002FB03F3184601F0A5F91B4B1B68012BFD
:10030C0024D100222021144801F09BFD00224FF43F
:10031C008071114801F095FD0E4B00221A60134BB1
:10032C0000221A60124B0D221A600F4B00221A6029
:10033C00FA2001F0BFF94FF4FA7001F0D7F905E09B
:10034C0000BF04E000BF02E000BF00E000BF00BF40
:10035C0080BD00BF88000020000801400000002084
:10036C00A400002004000020680000208C00002065
:10037C00900000200800002080B500AF514B1B6896
:10038C00073B032B00F2948001A252F823F000BF2C
:10039C00AD03000877040008EB03000831040008E3
:1003AC0001224FF48071484801F04BFD01224FF4BB
:1003BC000071454801F045FD01224FF4806142482F
:1003CC0001F03FFD3F4B09221A60404B1B684FF474
:1003DC007A7202FB03F3184601F050F96FE0012228
:1003EC004FF48071384801F02CFD00224FF400715D
:1003FC00354801F026FD01224FF48061324801F0AE
:10040C0020FD334B1B68012B54D12E4B0A221A6052
:10041C00304B1B684FF47A7202FB03F3184601F061
:10042C002DF947E001224FF48071274801F009FDB6
:10043C0001224FF40071244801F003FD00224FF417
:10044C008061214801F0FDFC214B1B68012B33D14D
:10045C001C4B08221A60204B1B684FF47A7202FB6B
:10046C0003F3184601F00AF926E000224FF48071DC
:10047C00154801F0E6FC01224FF40071124801F01E
:10048C00E0FC01224FF480610F4801F0DAFC104BC4
:10049C001B68012B12D10B4B09221A600B4B1B68EA
:1004AC004FF47A7202FB03F3184601F0E7F805E00B
:1004BC0000BF04E000BF02E000BF00E000BF00BFCF
:1004CC0080BD00BF8C00002000080140040000200B
:1004DC00A8000020080000200000002080B500AF1C
:1004EC00614B1B680F2B00F0A9810F2B00F34F827F
:1004FC000D2B03D00E2B00F0D18048E201224021BD
:10050C005A4801F09EFC01224FF40071574801F04B
:10051C0098FC01228021554801F093FC01224FF4F4
:10052C008061524801F08DFC514B00221A60504BF7
:10053C0001225A604F4B1B684F4A82FB03129210E8
:10054C00DB17D31A4A4A93604A4B19684A4B83FB10
:10055C0001239A10CB17D21A13469B0013445B004D
:10056C00CA1A434BDA60454B1B68012B0CD1202176
:10057C003E4801F07EFC4FF480713C4801F079FC60
:10058C004FF4FA7001F0B2F83D4B1B68012B11D1FE
:10059C003C4B1B685A1C3B490A60184600F012FD84
:1005AC00384B1B68032B02DD364B00221A60FA20F5
:1005BC0001F080F8344B1B68012B27D12D4B1B68A5
:1005CC0001332C4A13602B4B1B68632B02DD294B28
:1005DC0001221A60274B1B68274A82FB03129210D8
:1005EC00DB17D31A224A9360224B1968224B83FBE8
:1005FC0001239A10CB17D21A13469B0013445B00AD
:10060C00CA1A1B4BDA60204B00221A601F4B1B6866
:10061C00012B0BD11E4B01221A601E4B07221A60B4
:10062C001A4B00221A60104B00221A601A4B1B68DE
:10063C00012B40F0AE81002240210C4801F001FC5E
:10064C0000224FF40071094801F0FBFB064B0E220F
:10065C001A60114B00221A60FA2001F02BF84FF4AB
:10066C00FA7001F043F894E190000020000801407A
:10067C00780000200000002067666666B00000204D
:10068C00AC000020740000206C00002070000020E2
:10069C00880000208C00002068000020012220210E
:1006AC00594801F0CEFB01224FF48071564801F0FD
:1006BC00C8FB01228021544801F0C3FB01224FF4F6
:1006CC008061514801F0BDFB504B00221A604F4B2A
:1006DC0002225A604E4B1B684E4A82FB0312921048
:1006EC00DB17D31A494A9360494B1968494B83FB72
:1006FC0001239A10CB17D21A13469B0013445B00AC
:10070C00CA1A424BDA60444B1B68012B0CD14021B6
:10071C003D4801F0AEFB4FF400713B4801F0A9FBE2
:10072C004FF4FA7000F0E2FF3C4B1B68012B11D127
:10073C003B4B1B685A1C3A490A60184600F042FCB5
:10074C00374B1B68032B02DD354B00221A60FA2055
:10075C0000F0B0FF334B1B68012B27D12C4B1B68CF
:10076C0001332B4A13602A4B1B68632B02DD284B89
:10077C0001221A60264B1B68264A82FB0312921038
:10078C00DB17D31A214A9360214B1968214B83FB49
:10079C0001239A10CB17D21A13469B0013445B000B
:1007AC00CA1A1A4BDA601F4B00221A601E4B1B68C8
:1007BC00012B0BD11D4B01221A601D4B07221A6015
:1007CC00194B00221A601B4B00221A601A4B1B6833
:1007DC00012B40F0E080002280210B4801F031FB1E
:1007EC0000224FF48061084801F02BFB114B0F22C3
:1007FC001A60114B00221A60FA2000F05BFF4FF4D4
:10080C00FA7000F073FFC6E0000801407800002089
:10081C000400002067666666B0000020AC00002073
:10082C00740000206C000020700000208800002064
:10083C008C00002090000020680000200122202164
:10084C00574801F0FEFA01224FF48071544801F030
:10085C00F8FA01224021524801F0F3FA01224FF438
:10086C0000714F4801F0EDFA4E4B00221A604D4BCF
:10087C0003225A604C4B1B684C4A82FB03129210A9
:10088C00DB17D31A474A9360474B1968474B83FBD6
:10089C0001239A10CB17D21A13469B0013445B000A
:1008AC00CA1A404BDA60424B1B68012B0CD18021D9
:1008BC003B4801F0DEFA4FF48061394801F0D9FA77
:1008CC004FF4FA7000F012FF3A4B1B68012B11D158
:1008DC00394B1B685A1C38490A60184600F072FBE9
:1008EC00354B1B68032B02DD334B00221A60FA20B8
:1008FC0000F0E0FE314B1B68012B27D12A4B1B6803
:10090C000133294A1360284B1B68632B02DD264BED
:10091C0001221A60244B1B68244A82FB031292109A
:10092C00DB17D31A1F4A93601F4B19681F4B83FBAD
:10093C0001239A10CB17D21A13469B0013445B0069
:10094C00CA1A184BDA601D4B00221A601C4B1B682C
:10095C00012B0BD11B4B01221A601B4B07221A6077
:10096C00174B00221A60194B00221A60184B1B6897
:10097C00012B12D1134B01221A60134B07221A6060
:10098C00134B00221A60114B00221A6005E000BFC5
:10099C0004E000BF02E000BF00E000BF00BF80BD6C
:1009AC000008014078000020080000206766666699
:1009BC00B0000020AC000020740000206C0000206F
:1009CC0070000020880000208C0000209000002087
:1009DC006800002080B500AF234B1B68234A1360CE
:1009EC00234B1B68204A13604FF40051214801F03F
:1009FC0011FA03461A461E4B1A601C4B1A681A4B06
:100A0C001B689A422ED1184B1A68194B1B689A42D4
:100A1C0028D1194B1A68164B1B689A420FD0144BED
:100A2C001B68154A1360124B1B68002B1AD1134B11
:100A3C0001221A60124B4FF496721A6012E0104B9E
:100A4C001B68013B0E4A13600D4B1B68002B09D130
:100A5C00074B1B68002B02D1084B01221A60084B74
:100A6C0064221A6000BF80BD100000200C00002022
:100A7C001400002000100140180000206800002025
:100A8C003800002080B500AF624B1B68624A1360CF
:100A9C00624B1B685F4A13604FF48041604801F061
:100AAC00B9F903461A465D4B1A605B4B1A68594BF1
:100ABC001B689A4240F0AC80564B1A68574B1B6827
:100ACC009A4240F0A580574B1A68544B1B689A42C7
:100ADC000FD0524B1B68534A1360504B1B68002BB2
:100AEC0040F09680504B01221A60504B64221A60E1
:100AFC008EE04E4B1B68013B4C4A13604B4B1B6802
:100B0C00002B40F08580454B1B68002B7CD1484B5B
:100B1C001B680F2B52D00F2B77DC0D2B02D00E2B1A
:100B2C0026D072E0434B1B680133424A1360414BA1
:100B3C001B68632B02DD3F4B01221A603D4B1B6887
:100B4C003D4A82FB03129210DB17D31A3B4A936087
:100B5C00384B1968384B83FB01239A10CB17D21AE8
:100B6C0013469B0013445B00CA1A344BDA604CE00A
:100B7C00334B1B680133324A1360314B1B68632BB8
:100B8C0002DD2F4B01221A602D4B1B682A4A82FB77
:100B9C0003129210DB17D31A284A9360284B19685A
:100BAC00254B83FB01239A10CB17D21A13469B00BB
:100BBC0013445B00CA1A214BDA6026E0214B1B68F8
:100BCC000133204A13601F4B1B68632B02DD1D4B46
:100BDC0001221A601B4B1B68174A82FB03129210EE
:100BEC00DB17D31A154A9360164B1968124B83FB0B
:100BFC0001239A10CB17D21A13469B0013445B00A7
:100C0C00CA1A0E4BDA6000E000BF084B64221A606F
:100C1C0000BF80BD200000201C000020240000200C
:100C2C0000100140280000206C0000203C00002037
:100C3C0090000020000000206766666678000020A7
:100C4C00040000200800002080B500AF124B1B6888
:100C5C00124A1360124B1B680F4A13604FF4004189
:100C6C00104801F0D7F803461A460D4B1A600B4B8F
:100C7C001A68094B1B689A420CD1074B1A68084B2F
:100C8C001B689A4206D1064B1B68002B02D1064BFF
:100C9C0001221A6000BF80BD300000202C00002013
:100CAC0034000020001001407000002080B582B09C
:100CBC0000AF78607B68082B00F25A8101A252F8D1
:100CCC0023F000BFF50C00083D0D0008850D000851
:100CDC00CD0D0008150E00085D0E0008A50E0008CD
:100CEC00ED0E0008350F000800220121B44801F078
:100CFC00A8F800220221B24801F0A3F80022042136
:100D0C00AF4801F09EF800220821AD4801F099F897
:100D1C0000221021AA4801F094F800222021A848B2
:100D2C0001F08FF801224021A54801F08AF843E137
:100D3C0001220121A24801F084F800220221A048DE
:100D4C0001F07FF8002204219D4801F07AF801227D
:100D5C0008219B4801F075F801221021984801F0F8
:100D6C0070F801222021964801F06BF801224021F5
:100D7C00934801F066F81FE100220121904801F030
:100D8C0060F8002202218E4801F05BF80122042158
:100D9C008B4801F056F800220821894801F051F8DF
:100DAC0000221021864801F04CF8012220218448B1
:100DBC0001F047F800224021814801F042F8FBE0A5
:100DCC00002201217E4801F03CF8002202217C48DF
:100DDC0001F037F800220421794801F032F80022A2
:100DEC000821774801F02DF801221021744801F0F8
:100DFC0028F801222021724801F023F8002240211A
:100E0C006F4801F01EF8D7E0012201216C4801F077
:100E1C0018F8002202216A4801F013F8002204217C
:100E2C00674801F00EF801220821654801F009F825
:100E3C0001221021624801F004F8002220216048B0
:100E4C0000F0FFFF002240215D4800F0FAFFB3E004
:100E5C00002201215A4800F0F4FF012202215848D7
:100E6C0000F0EFFF00220421554800F0EAFF0022B9
:100E7C000821534800F0E5FF01221021504800F0F2
:100E8C00E0FF002220214E4800F0DBFF0022402131
:100E9C004B4800F0D6FF8FE000220121484800F0BB
:100EAC00D0FF01220221464800F0CBFF0022042192
:100EBC00434800F0C6FF00220821414800F0C1FF62
:100ECC00002210213E4800F0BCFF002220213C48AB
:100EDC0000F0B7FF00224021394800F0B2FF6BE070
:100EEC0000220121364800F0ACFF002202213448D8
:100EFC0000F0A7FF00220421314800F0A2FF0122DC
:100F0C0008212F4800F09DFF012210212C4800F0F1
:100F1C0098FF012220212A4800F093FF0122402152
:100F2C00274800F08EFF47E000220121244800F002
:100F3C0088FF00220221224800F083FF00220421B6
:100F4C001F4800F07EFF002208211D4800F079FFA9
:100F5C00002210211A4800F074FF002220211848AA
:100F6C0000F06FFF00224021154800F06AFF23E0DB
:100F7C0000220121124800F064FF002202211048D7
:100F8C0000F05FFF002204210D4800F05AFF002200
:100F9C0008210B4800F055FF01221021084800F0F1
:100FAC0050FF00222021064800F04BFF0022402178
:100FBC00034800F046FF00BF00BF0837BD4680BDA8
:100FCC00000C014080B582B000AF78607B68032BC9
:100FDC007AD801A252F823F0F50F00082D10000862
:100FEC00651000089D10000800220221394800F00D
:100FFC0028FF01220421374800F023FF0122082199
:10100C00344800F01EFF01221021324800F019FF75
:10101C00314A7B6852F823301846FFF747FE54E0FC
:10102C00012202212B4800F00CFF00220421294848
:10103C0000F007FF01220821264800F002FF0122E0
:10104C001021244800F0FDFE234A7B6852F823301F
:10105C001846FFF72BFE38E0012202211D4800F054
:10106C00F0FE012204211B4800F0EBFE00220821B7
:10107C00184800F0E6FE01221021164800F0E1FEAF
:10108C00154A7B6852F823301846FFF70FFE1CE018
:10109C00012202210F4800F0D4FE012204210D4848
:1010AC0000F0CFFE012208210A4800F0CAFE0022FF
:1010BC001021084800F0C5FE074A7B6852F823301F
:1010CC001846FFF7F3FD00E000BF00BF0837BD4630
:1010DC0080BD00BF000801407800002080B400AF44
:1010EC00614B1B68614A82FB03129211DB17D31A06
:1010FC005F4A13605C4B1A685C4B83FB02139911BB
:10110C00D317CB1A4FF47A7101FB03F3D31A594A54
:10111C0082FB03125211DB17D31A0133544A53606A
:10112C00554B1B68514A82FB03129211DB17D31AE1
:10113C004F4A9360504B1A684C4B83FB0213991126
:10114C00D317CB1A4FF47A7101FB03F3D31A494A24
:10115C0082FB03125211DB17D31A0133444AD360BA
:10116C00414B1A68414B83FB02139911D317CB1ACD
:10117C004FF47A7101FB03F3D31A3E4A82FB03123C
:10118C005211DB17D31A591C3C4B83FB01239A10C9
:10119C00CB17D21A13469B0013445B00CA1A002AC1
:1011AC001ED1314B1A68314B83FB02139911D317A3
:1011BC00CB1A4FF47A7101FB03F3D31A2D4A82FB3D
:1011CC0003125211DB17D31A01332C4A82FB031280
:1011DC009210DB17D31A264A1360254B00225A6053
:1011EC00254B1A68214B83FB02139911D317CB1A89
:1011FC004FF47A7101FB03F3D31A1E4A82FB0312DC
:10120C005211DB17D31A591C1C4B83FB01239A1068
:10121C00CB17D21A13469B0013445B00CA1A002A40
:10122C001ED1154B1A68114B83FB02139911D3175E
:10123C00CB1A4FF47A7101FB03F3D31A0D4A82FBDC
:10124C0003125211DB17D31A01330C4A82FB03121F
:10125C009210DB17D31A064A9360054B0022DA6012
:10126C0000BFBD4680BC704794000020D34D621077
:10127C00780000201F85EB51980000206766666699
:10128C0080B500AF0C4B1B68012B13D10B4B1B68AB
:10129C005A1C0A490A601846FFF794FE074B1B6854
:1012AC00032B02DD054B00221A60FFF717FFFA2013
:1012BC0000F000FA00BF80BDAC00002074000020DC
:1012CC0080B500AF00F0BCFA00F01AF800F0A0F8FE
:1012DC0000F052F8074801F01DFA074B01221A6082
:1012EC00064B07221A60FFF7F9F8FEF729FFFFF704
:1012FC0043F8F8E7B4000020880000208C000020A0
:10130C0080B590B000AF07F11803282200211846D1
:10131C0001F0B8FD3B1D00221A605A609A60DA6039
:10132C001A610223BB610123BB621023FB62002301
:10133C007B6307F11803184600F0B4FD0346002B3D
:10134C0001D000F0EBF80F237B600023BB6000237F
:10135C00FB6000233B6100237B613B1D0021184691
:10136C0001F020F80346002B01D000F0D7F800BFA5
:10137C004037BD4680BD000080B586B000AF07F198
:10138C00080300221A605A609A60DA603B46002219
:10139C001A605A601D4B4FF080421A601B4B41F68D
:1013AC003F725A60194B00229A60184B0922DA607E
:1013BC00164B00221A61154B00229A61134801F05A
:1013CC0059F90346002B01D000F0A8F84FF48053D4
:1013DC00BB6007F1080319460C4801F0EFFA03460D
:1013EC00002B01D000F09AF800233B6000237B60B7
:1013FC003B461946054801F0B7FC0346002B01D0CB
:10140C0000F08CF800BF1837BD4680BDB40000203A
:10141C0080B588B000AF07F1100300221A605A6043
:10142C009A60DA602E4B9B692D4A43F0100393614E
:10143C002B4B9B6903F01003FB60FB68284B9B69EB
:10144C00274A43F004039361254B9B6903F0040383
:10145C00BB60BB68224B9B69214A43F00803936134
:10146C001F4B9B6903F008037B607B68002240F2F2
:10147C00FE711C4800F0E5FC00227F211A4800F0A8
:10148C00E0FC4FF460433B6100237B610123BB61B3
:10149C0007F110031946154800F042FB40F2FE73A9
:1014AC003B6101237B610023BB610223FB6107F1DC
:1014BC00100319460B4800F033FB7F233B610123DB
:1014CC007B610023BB610223FB6107F1100319460A
:1014DC00054800F025FB00BF2037BD4680BD00BF8E
:1014EC000010024000080140000C014000100140B7
:1014FC0080B582B000AF7860FFF76CFAFFF7C2FAE4
:10150C00FFF7A2FB00F00EF900F026F900F03EF90F
:10151C0000F056F900BF0837BD4680BD80B400AF5F
:10152C0072B600BFFEE7000080B485B000AF154B6B
:10153C009B69144A43F001039361124B9B6903F0BE
:10154C000103BB60BB680F4BDB690E4A43F0805351
:10155C00D3610C4BDB6903F080537B607B680A4BD7
:10156C005B68FB60FB6823F0E063FB60FB6843F0A7
:10157C008063FB60044AFB68536000BF1437BD46B0
:10158C0080BC7047001002400000014080B584B060
:10159C0000AF78607B681B68B3F1804F13D10C4BA4
:1015AC00DB690B4A43F00103D361094BDB6903F0A0
:1015BC000103FB60FB68002200211C2000F079FA7B
:1015CC001C2000F092FA00BF1037BD4680BD00BF52
:1015DC000010024080B400AFFEE780B400AFFEE71D
:1015EC0080B400AFFEE780B400AFFEE780B400AF7C
:1015FC00FEE780B400AF00BFBD4680BC704780B42E
:10160C0000AF00BFBD4680BC704780B400AF00BFC8
:10161C00BD4680BC704780B500AF00F057F900BFE5
:10162C0080BD000080B500AF024801F0BFF800BFDC
:10163C0080BD00BFB400002080B400AF00BFBD4629
:10164C0080BC704780B483B000AF78607B68084A78
:10165C0082FB03129210DB17D31A064A1360064B57
:10166C0000221A6000BF0C37BD4680BC704700BF1B
:10167C006766666694000020A400002080B483B0E6
:10168C0000AF78607B68084A82FB03129210DB176C
:10169C00D31A064A1360064B00221A6000BF0C379F
:1016AC00BD4680BC704700BF676666669800002028
:1016BC00A800002080B483B000AF78607B68084A33
:1016CC0082FB03129210DB17D31A064A1360064BE7
:1016DC0000221A6000BF0C37BD4680BC704700BFAB
:1016EC00676666669C000020AC00002080B483B066
:1016FC0000AF78607B68084A82FB03129210DB17FC
:10170C00D31A064A1360064B00221A6000BF0C372E
:10171C00BD4680BC704700BF67666666A0000020AF
:10172C00B000002080B400AF094B1B68002B0BDD10
:10173C00074B1B68013B064A1360054B1B68002BCB
:10174C0002DC044B01221A6000BFBD4680BC70470E
:10175C0094000020A400002080B400AF094B1B684B
:10176C00002B0BDD074B1B68013B064A1360054B36
:10177C001B68002B02DC044B01221A6000BFBD4623
:10178C0080BC704798000020A800002080B400AFF7
:10179C00094B1B68002B0BDD074B1B68013B064AF2
:1017AC001360054B1B68002B02DC044B01221A60F2
:1017BC0000BFBD4680BC70479C000020AC000020E0
:1017CC0080B400AF094B1B68002B0BDD074B1B686B
:1017DC00013B064A1360054B1B68002B02DC044BD3
:1017EC0001221A6000BFBD4680BC7047A0000020DB
:1017FC00B00000200C480D490D4A002302E0D458DB
:10180C00C4500433C4188C42F9D30A4A0A4C00233E
:10181C0001E013600432A242FBD3FFF70DFF01F08D
:10182C000DFBFFF74DFD7047000000204C00002021
:10183C00E02E00084C00002000010020FEE7000014
:10184C0080B500AF084B1B68074A43F010031360C8
:10185C00032000F023F90F2000F008F8FFF764FED6
:10186C000023184680BD00BF0020024080B582B026
:10187C0000AF7860124B1A68124B1B7819464FF464
:10188C007A73B3FBF1F3B2FBF3F3184600F03BF9B8
:10189C000346002B01D001230EE07B680F2B0AD8E6
:1018AC00002279684FF0FF3000F003F9064A7B689C
:1018BC001360002300E0012318460837BD4680BDA5
:1018CC0040000020480000204400002080B400AFFD
:1018DC00054B1B781A46054B1B681344034A1360CF
:1018EC0000BFBD4680BC704748000020FC000020B3
:1018FC0080B400AF024B1B681846BD4680BC7047D5
:10190C00FC00002080B485B000AF78607B6803F0E9
:10191C000703FB600C4BDB68BB60BA684FF6FF0338
:10192C001340BB60FB681A02BB68134343F0BF63F0
:10193C0043F40033BB60044ABB68D36000BF143768
:10194C00BD4680BC704700BF00ED00E080B400AF26
:10195C00044BDB681B0A03F007031846BD4680BC2A
:10196C00704700BF00ED00E080B483B000AF0346C9
:10197C00FB7197F90730002B0BDBFB7903F01F028F
:10198C00064997F907305B09012000FA02F241F889
:10199C00232000BF0C37BD4680BC704700E100E03F
:1019AC0080B483B000AF03463960FB7197F9073000
:1019BC00002B0ADB3B68DAB20C4997F907301201AD
:1019CC00D2B20B4483F800230AE03B68DAB2084930
:1019DC00FB7903F00F03043B1201D2B20B441A76CD
:1019EC0000BF0C37BD4680BC704700BF00E100E073
:1019FC0000ED00E080B489B000AFF860B9607A60A7
:101A0C00FB6803F00703FB61FB69C3F10703042BBD
:101A1C0028BF0423BB61FB690433062B02D9FB6985
:101A2C00033B00E000237B614FF0FF32BB6902FAFD
:101A3C0003F3DA43BB681A407B699A404FF0FF31DD
:101A4C007B6901FA03F3D9437B680B4013431846B7
:101A5C002437BD4680BC704780B582B000AF78603B
:101A6C007B68013BB3F1807F01D301230FE00A4A6D
:101A7C007B68013B53600F214FF0FF30FFF790FF65
:101A8C00054B00229A60044B07221A60002318466B
:101A9C000837BD4680BD00BF10E000E080B582B0C5
:101AAC0000AF78607868FFF72DFF00BF0837BD46A0
:101ABC0080BD80B586B000AF0346B9607A60FB7319
:101ACC0000237B61FFF742FF78617A68B968786917
:101ADC00FFF790FF024697F90F3011461846FFF7B3
:101AEC005FFF00BF1837BD4680BD80B582B000AF28
:101AFC000346FB7197F907301846FFF735FF00BF17
:101B0C000837BD4680BD80B582B000AF786078687C
:101B1C00FFF7A2FF034618460837BD4680BD0000FC
:101B2C0080B48BB000AF7860396000237B620023F7
:101B3C003B6248E101227B6A02FA03F3FB613B68DA
:101B4C001B68FA691340BB61BA69FB699A4240F0A1
:101B5C0037813B685B68A34A93425ED0A14A9342AB
:101B6C0075D8A14A934258D09F4A93426FD89F4A46
:101B7C00934252D09D4A934269D89D4A93424CD08D
:101B8C009B4A934263D89B4A934246D0994A9342CC
:101B9C005DD8122B2AD8122B59D801A252F823F057
:101BAC00271C0008011C0008131C0008551C000809
:101BBC005B1C00085B1C00085B1C00085B1C00081D
:101BCC005B1C00085B1C00085B1C00085B1C00080D
:101BDC005B1C00085B1C00085B1C00085B1C0008FD
:101BEC005B1C0008091C00081D1C0008824A93425B
:101BFC0013D02CE03B68DB683B6229E03B68DB6878
:101C0C0004333B6224E03B68DB6808333B621FE033
:101C1C003B68DB680C333B621AE03B689B68002B2B
:101C2C0002D104233B6213E03B689B68012B05D176
:101C3C0008233B627B68FA691A6109E008233B625E
:101C4C007B68FA695A6103E000233B6200E000BF45
:101C5C00BB69FF2B01D87B6801E07B6804337B6197
:101C6C00BB69FF2B02D87B6A9B0002E07B6A083BB6
:101C7C009B003B617B691A680F213B6901FA03F3F6
:101C8C00DB431A40396A3B6901FA03F31A437B6957
:101C9C001A603B685B6803F08053002B00F0908067
:101CAC00564B9B69554A43F001039361534B9B6917
:101CBC0003F00103BB60BB68514A7B6A9B0802338B
:101CCC0052F82330FB607B6A03F003039B000F2266
:101CDC0002FA03F3DB43FA681340FB607B68494A62
:101CEC0093420DD07B68484A934207D07B68474AA1
:101CFC00934201D1022304E0032302E0012300E01C
:101D0C0000237A6A02F0030292009340FA681343AC
:101D1C00FB603B497B6A9B080233FA6841F823203D
:101D2C003B685B6803F48033002B06D0384B1A6891
:101D3C003749BB6913430B6006E0354B1A68BB6926
:101D4C00DB43334913400B603B685B6803F400339F
:101D5C00002B06D02E4B5A682D49BB6913434B60A0
:101D6C0006E02B4B5A68BB69DB43294913404B6097
:101D7C003B685B6803F48013002B06D0244B9A68F5
:101D8C002349BB6913438B6006E0214B9A68BB69FE
:101D9C00DB431F4913408B603B685B6803F4001303
:101DAC00002B06D01A4BDA681949BB691343CB6078
:101DBC0006E0174BDA68BB69DB4315491340CB606F
:101DCC007B6A01337B623B681A687B6A22FA03F3F5
:101DDC00002B7FF4AFAE00BF00BF2C37BD4680BCDC
:101DEC00704700BF000032100000311000002210BC
:101DFC000000211000001210000011100010024011
:101E0C000000014000080140000C0140001001409E
:101E1C000004014080B485B000AF78600B467B8035
:101E2C007B689A687B881340002B02D00123FB73DC
:101E3C0001E00023FB73FB7B18461437BD4680BCC6
:101E4C00704780B483B000AF78600B467B8013463C
:101E5C007B707B78002B03D07A887B681A6103E057
:101E6C007B881A047B681A6100BF0C37BD4680BCA6
:101E7C00704780B485B000AF78600B467B807B6880
:101E8C00DB68FB607A88FB6813401A04FB68D94353
:101E9C007B880B401A437B681A6100BF1437BD4620
:101EAC0080BC704780B586B000AF78607B68002B33
:101EBC0001D101236CE27B681B6803F00103002B4A
:101ECC0000F08780924B5B6803F00C03042B0CD062
:101EDC008F4B5B6803F00C03082B12D18C4B5B68A7
:101EEC0003F48033B3F5803F0BD1894B1B6803F4AB
:101EFC000033002B6CD07B685B68002B68D101230E
:101F0C0046E27B685B68B3F5803F06D1804B1B686B
:101F1C007F4A43F4803313602EE07B685B68002BB0
:101F2C000CD17B4B1B687A4A23F480331360784BBB
:101F3C001B68774A23F4802313601DE07B685B6881
:101F4C00B3F5A02F0CD1724B1B68714A43F480235C
:101F5C0013606F4B1B686E4A43F4803313600BE0C5
:101F6C006B4B1B686A4A23F480331360684B1B6805
:101F7C00674A23F4802313607B685B68002B13D0C3
:101F8C00FFF7B6FC386108E0FFF7B2FC02463B698C
:101F9C00D31A642B01D90323FAE15D4B1B6803F4BC
:101FAC000033002BF0D014E0FFF7A2FC386108E0FE
:101FBC00FFF79EFC02463B69D31A642B01D903231D
:101FCC00E6E1534B1B6803F40033002BF0D100E027
:101FDC0000BF7B681B6803F00203002B63D04C4BE3
:101FEC005B6803F00C03002B0BD0494B5B6803F0D0
:101FFC000C03082B1CD1464B5B6803F48033002B7D
:10200C0016D1434B1B6803F00203002B05D07B68F1
:10201C001B69012B01D00123BAE13D4B1B6823F056
:10202C00F8027B685B69DB00394913430B603AE0CB
:10203C007B681B69002B20D0364B01221A60FFF7FE
:10204C0057FC386108E0FFF753FC02463B69D31A92
:10205C00022B01D903239BE12D4B1B6803F00203D8
:10206C00002BF0D02A4B1B6823F0F8027B685B69CD
:10207C00DB00274913430B6015E0264B00221A6046
:10208C00FFF736FC386108E0FFF732FC02463B698B
:10209C00D31A022B01D903237AE11D4B1B6803F0E1
:1020AC000203002BF0D17B681B6803F00803002BA4
:1020BC003AD07B689B69002B19D0174B01221A6010
:1020CC00FFF716FC386108E0FFF712FC02463B698B
:1020DC00D31A022B01D903235AE10D4B5B6A03F08F
:1020EC000203002BF0D0012000F0A6FA1CE00A4BF2
:1020FC0000221A60FFF7FCFB38610FE0FFF7F8FBDA
:10210C0002463B69D31A022B08D9032340E100BFD6
:10211C000010024000004242800442429E4B5B6A27
:10212C0003F00203002BE9D17B681B6803F0040366
:10213C00002B00F0A6800023FB75974BDB6903F0A6
:10214C008053002B0DD1944BDB69934A43F08053A1
:10215C00D361914BDB6903F08053BB60BB680123F7
:10216C00FB758E4B1B6803F48073002B18D18B4BC3
:10217C001B688A4A43F480731360FFF7B9FB38611C
:10218C0008E0FFF7B5FB02463B69D31A642B01D973
:10219C000323FDE0814B1B6803F48073002BF0D00C
:1021AC007B68DB68012B06D17B4B1B6A7A4A43F0B8
:1021BC00010313622DE07B68DB68002B0CD1764B9E
:1021CC001B6A754A23F001031362734B1B6A724A34
:1021DC0023F0040313621CE07B68DB68052B0CD135
:1021EC006D4B1B6A6C4A43F0040313626A4B1B6A07
:1021FC00694A43F0010313620BE0674B1B6A664AA2
:10220C0023F001031362644B1B6A634A23F004033B
:10221C0013627B68DB68002B15D0FFF769FB386114
:10222C000AE0FFF765FB02463B69D31A41F288329C
:10223C00934201D90323ABE0574B1B6A03F0020313
:10224C00002BEED014E0FFF753FB38610AE0FFF7E8
:10225C004FFB02463B69D31A41F28832934201D9B3
:10226C00032395E04C4B1B6A03F00203002BEED1C9
:10227C00FB7D012B05D1484BDB69474A23F080538A
:10228C00D3617B68DB69002B00F08180424B5B687B
:10229C0003F00C03082B61D07B68DB69022B46D161
:1022AC003F4B00221A60FFF723FB386108E0FFF771
:1022BC001FFB02463B69D31A022B01D9032367E0AB
:1022CC00354B1B6803F00073002BF0D17B681B6A45
:1022DC00B3F5803F08D1304B5B6823F400327B6848
:1022EC009B682D4913434B602B4B5B6823F4741292
:1022FC007B68196A7B685B6A0B43274913434B6005
:10230C00274B01221A60FFF7F3FA386108E0FFF758
:10231C00EFFA02463B69D31A022B01D9032337E0AB
:10232C001D4B1B6803F00073002BF0D02FE01C4BEF
:10233C0000221A60FFF7DCFA386108E0FFF7D8FAE0
:10234C0002463B69D31A022B01D9032320E0124B1E
:10235C001B6803F00073002BF0D118E07B68DB697D
:10236C00012B01D1012313E00B4B5B68FB60FB6875
:10237C0003F480327B681B6A9A4206D1FB6803F433
:10238C0070127B685B6A9A4201D0012300E0002343
:10239C0018461837BD4680BD001002400070004042
:1023AC006000424280B584B000AF786039607B68D1
:1023BC00002B01D10123D0E06A4B1B6803F007030B
:1023CC003A689A4210D9674B1B6823F0070265499B
:1023DC003B6813430B60634B1B6803F007033A68BD
:1023EC009A4201D00123B8E07B681B6803F002031A
:1023FC00002B20D07B681B6803F00403002B05D056
:10240C00594B5B68584A43F4E06353607B681B6824
:10241C0003F00803002B05D0534B5B68524A43F47E
:10242C0060535360504B5B6823F0F0027B689B68F1
:10243C004D4913434B607B681B6803F00103002B71
:10244C0040D07B685B68012B07D1474B1B6803F4BA
:10245C000033002B15D101237FE07B685B68022BD6
:10246C0007D1414B1B6803F00073002B09D10123EA
:10247C0073E03D4B1B6803F00203002B01D10123D9
:10248C006BE0394B5B6823F003027B685B68364971
:10249C0013434B60FFF72CFAF8600AE0FFF728FAB9
:1024AC000246FB68D31A41F28832934201D90323C6
:1024BC0053E02D4B5B6803F00C027B685B689B0060
:1024CC009A42EBD1274B1B6803F007033A689A42F8
:1024DC0010D2244B1B6823F0070222493B6813439C
:1024EC000B60204B1B6803F007033A689A4201D03B
:1024FC00012332E07B681B6803F00403002B08D037
:10250C00194B5B6823F4E0627B68DB681649134364
:10251C004B607B681B6803F00803002B09D0124B3F
:10252C005B6823F460527B681B69DB000E49134324
:10253C004B6000F021F802460B4B5B681B0903F063
:10254C000F030A49CB5C22FA03F3094A1360094BC7
:10255C001B681846FFF78AF9002318461037BD464A
:10256C0080BD00BF0020024000100240C82E0008B1
:10257C00400000204400002090B48AB000AF2A4BE9
:10258C003C1D0FCB84E80F0040F201233B8000235D
:10259C00FB610023BB6100237B6200237B61002372
:1025AC003B62224B5B68FB61FB6903F00C03042B61
:1025BC0002D0082B03D02DE01D4B3B622DE0FB69B4
:1025CC009B0C03F00F0307F12802134413F8243C6F
:1025DC007B61FB6903F48033002B13D0134B5B68D6
:1025EC005B0C03F0010307F12802134413F8283C99
:1025FC00BB617B690E4A02FB03F2BB69B2FBF3F3CE
:10260C007B6204E07B690B4A02FB03F37B627B6A0F
:10261C003B6202E0064B3B6200BF3B6A1846283720
:10262C00BD4690BC704700BFB82E00080010024099
:10263C0000127A0000093D0080B485B000AF7860CC
:10264C000A4B1B680A4AA2FB03235B0A7A6802FB4B
:10265C0003F3FB6000BFFB685A1EFA60002BF9D134
:10266C0000BF00BF1437BD4680BC7047400000203F
:10267C00D34D621080B582B000AF78607B68002BC0
:10268C0001D1012341E07B6893F83D30DBB2002B94
:10269C0006D17B68002283F83C207868FEF776FF31
:1026AC007B68022283F83D207B681A687B680433C0
:1026BC001946104600F06AFA7B68012283F846201E
:1026CC007B68012283F83E207B68012283F83F203F
:1026DC007B68012283F840207B68012283F841202B
:1026EC007B68012283F842207B68012283F8432017
:1026FC007B68012283F844207B68012283F8452003
:10270C007B68012283F83D20002318460837BD461C
:10271C0080BD000080B485B000AF78607B6893F812
:10272C003D30DBB2012B01D0012335E07B68022266
:10273C0083F83D207B681B68DA687B681B6842F075
:10274C000102DA607B681B68164A934209D07B68E9
:10275C001B68B3F1804F04D07B681B68124A93420C
:10276C0011D17B681B689B6803F00703FB60FB6857
:10277C00062B10D07B681B681A687B681B6842F0BC
:10278C0001021A6007E07B681B681A687B681B688B
:10279C0042F001021A60002318461437BD4680BC73
:1027AC00704700BF002C01400004004080B582B08F
:1027BC0000AF78607B681B681B6903F00203022B77
:1027CC0022D17B681B68DB6803F00203022B1BD150
:1027DC007B681B686FF002021A617B6801221A7712
:1027EC007B681B689B6903F00303002B03D078689C
:1027FC0000F0B1F905E0786800F0A4F9786800F011
:10280C00B3F97B6800221A777B681B681B6903F09D
:10281C000403042B22D17B681B68DB6803F00403E0
:10282C00042B1BD17B681B686FF004021A617B6858
:10283C0002221A777B681B689B6903F44073002B98
:10284C0003D0786800F087F905E0786800F07AF931
:10285C00786800F089F97B6800221A777B681B681E
:10286C001B6903F00803082B22D17B681B68DB680B
:10287C0003F00803082B1BD17B681B686FF0080260
:10288C001A617B6804221A777B681B68DB6903F08A
:10289C000303002B03D0786800F05DF905E078683D
:1028AC0000F050F9786800F05FF97B6800221A7725
:1028BC007B681B681B6903F01003102B22D17B680B
:1028CC001B68DB6803F01003102B1BD17B681B68A3
:1028DC006FF010021A617B6808221A777B681B68FC
:1028EC00DB6903F44073002B03D0786800F033F9F4
:1028FC0005E0786800F026F9786800F035F97B6817
:10290C0000221A777B681B681B6903F00103012BFB
:10291C000ED17B681B68DB6803F00103012B07D128
:10292C007B681B686FF001021A617868FEF7E0FDA6
:10293C007B681B681B6903F08003802B0ED17B68BE
:10294C001B68DB6803F08003802B07D17B681B6856
:10295C006FF080021A61786800F067FA7B681B6878
:10296C001B6903F04003402B0ED17B681B68DB68AE
:10297C0003F04003402B07D17B681B686FF04002CB
:10298C001A61786800F0F9F87B681B681B6903F022
:10299C002003202B0ED17B681B68DB6803F020031F
:1029AC00202B07D17B681B686FF020021A617868B6
:1029BC0000F032FA00BF0837BD4680BD80B584B048
:1029CC0000AF786039607B6893F83C30012B01D103
:1029DC000223B3E07B68012283F83C207B6802224F
:1029EC0083F83D207B681B689B68FB60FB6823F0C9
:1029FC007703FB60FB6823F47F43FB607B681B68F9
:102A0C00FA689A603B681B68B3F5005F3ED0B3F57B
:102A1C00005F00F28780B3F5805F00F08580B3F52E
:102A2C00805F7FD8702B1AD0702B7BD8602B50D046
:102A3C00602B77D8502B3CD0502B73D8402B58D0D0
:102A4C00402B6FD8302B64D0302B6BD8202B60D020
:102A5C00202B67D8002B5CD0102B5AD062E07B68FF
:102A6C0018683B6899683B685A683B68DB6800F0FB
:102A7C005CF97B681B689B68FB60FB6843F0770321
:102A8C00FB607B681B68FA689A604EE07B6818688C
:102A9C003B6899683B685A683B68DB6800F045F90D
:102AAC007B681B689A687B681B6842F480429A605A
:102ABC003BE07B6818683B6859683B68DB681A46E2
:102ACC0000F0BCF87B681B685021184600F013F925
:102ADC002BE07B6818683B6859683B68DB681A46D2
:102AEC0000F0DAF87B681B686021184600F003F9E7
:102AFC001BE07B6818683B6859683B68DB681A46C2
:102B0C0000F09CF87B681B684021184600F0F3F835
:102B1C000BE07B681A683B681B681946104600F08E
:102B2C00EAF802E000BF00E000BF7B68012283F8F6
:102B3C003D207B68002283F83C2000231846103788
:102B4C00BD4680BD80B483B000AF786000BF0C3749
:102B5C00BD4680BC704780B483B000AF786000BFC6
:102B6C000C37BD4680BC704780B483B000AF786032
:102B7C0000BF0C37BD4680BC704780B483B000AF3B
:102B8C00786000BF0C37BD4680BC704780B485B000
:102B9C0000AF786039607B681B68FB607B68254AF6
:102BAC00934207D07B68B3F1804F03D07B68224AF5
:102BBC00934208D1FB6823F07003FB603B685B68B1
:102BCC00FA681343FB607B681A4A934207D07B6810
:102BDC00B3F1804F03D07B68174A934208D1FB684E
:102BEC0023F44073FB603B68DB68FA681343FB60BB
:102BFC00FB6823F080023B685B691343FB607B68D6
:102C0C00FA681A603B689A687B68DA623B681A68F3
:102C1C007B689A627B68074A934203D13B681A69C6
:102C2C007B681A637B6801225A6100BF1437BD466A
:102C3C0080BC7047002C01400004004080B487B079
:102C4C0000AFF860B9607A60FB681B6A7B61FB6857
:102C5C001B6A23F00102FB681A62FB689B693B61EB
:102C6C003B6923F0F0033B617B681B013A6913431A
:102C7C003B617B6923F00A037B617A69BB68134370
:102C8C007B61FB683A699A61FB687A691A6200BFDA
:102C9C001C37BD4680BC704780B487B000AFF8606D
:102CAC00B9607A60FB681B6A23F01002FB681A6239
:102CBC00FB689B697B61FB681B6A3B617B6923F446
:102CCC0070437B617B681B037A6913437B613B69AF
:102CDC0023F0A0033B61BB681B013A6913433B61C2
:102CEC00FB687A699A61FB683A691A6200BF1C3703
:102CFC00BD4680BC704780B485B000AF7860396049
:102D0C007B689B68FB60FB6823F07003FB603A6890
:102D1C00FB68134343F00703FB607B68FA689A6017
:102D2C0000BF1437BD4680BC704780B487B000AF7D
:102D3C00F860B9607A603B60FB689B687B617B697B
:102D4C0023F47F437B613B681A027B681A43BB68A0
:102D5C0013437A6913437B61FB687A699A6000BFFD
:102D6C001C37BD4680BC704780B485B000AF78601E
:102D7C0039607B6893F83C30012B01D1022341E090
:102D8C007B68012283F83C207B68022283F83D207B
:102D9C007B681B685B68FB607B681B689B68BB601F
:102DAC00FB6823F07003FB603B681B68FA681343F5
:102DBC00FB607B681B68FA685A607B681B68144A66
:102DCC00934209D07B681B68B3F1804F04D07B68B9
:102DDC001B68104A93420CD1BB6823F08003BB6084
:102DEC003B685B68BA681343BB607B681B68BA6856
:102DFC009A607B68012283F83D207B68002283F86F
:102E0C003C20002318461437BD4680BC704700BFD9
:102E1C00002C01400004004080B483B000AF786007
:102E2C0000BF0C37BD4680BC704780B483B000AF88
:102E3C00786000BF0C37BD4680BC704770B500266B
:102E4C000C4D0D4C641BA410A64209D100F022F8C5
:102E5C0000260A4D0A4C641BA410A64205D170BD75
:102E6C0055F8043B98470136EEE755F8043B984774
:102E7C000136F2E7D82E0008D82E0008D82E00080C
:102E8C00DC2E000803460244934200D1704703F83D
:102E9C00011BF9E7F8B500BFF8BC08BC9E467047AB
:0C2EAC00F8B500BFF8BC08BC9E4670479B
:102EB80002030405060708090A0B0C0D0E0F101073
:102EC80000000000000000000102030406070809D2
:042ED80031010008BC
:042EDC000D010008DC
:102EE00005000000030000000200000001000000D7
:102EF00001000000010000000100000001000000CE
:102F000001000000010000000100000001000000BD
:102F1000010000000100000032000000320000004B
:0C2F20000024F40010000000010000007C
:0400000508001801D6
:00000001FF
